{
  "address": "0x2e379794ba98387c55e67f0fe2ee955451971446",
  "abi": [
    {
      "constant": true,
      "inputs": [],
      "name": "DEPOSIT_CONTRACT_ADDRESS",
      "outputs": [
        {
          "internalType": "address",
          "name": "",
          "type": "address"
        }
      ],
      "payable": false,
      "stateMutability": "view",
      "type": "function"
    },
    {
      "constant": false,
      "inputs": [
        {
          "internalType": "bytes[]",
          "name": "pubkeys",
          "type": "bytes[]"
        },
        {
          "internalType": "bytes[]",
          "name": "withdrawal_credentials",
          "type": "bytes[]"
        },
        {
          "internalType": "bytes[]",
          "name": "signatures",
          "type": "bytes[]"
        },
        {
          "internalType": "bytes32[]",
          "name": "deposit_data_roots",
          "type": "bytes32[]"
        }
      ],
      "name": "batchDeposit",
      "outputs": [],
      "payable": true,
      "stateMutability": "payable",
      "type": "function"
    },
    {
      "constant": true,
      "inputs": [],
      "name": "DEPOSIT_AMOUNT",
      "outputs": [
        {
          "internalType": "uint256",
          "name": "",
          "type": "uint256"
        }
      ],
      "payable": false,
      "stateMutability": "view",
      "type": "function"
    },
    {
      "inputs": [],
      "payable": false,
      "stateMutability": "nonpayable",
      "type": "constructor"
    },
    {
      "payable": true,
      "stateMutability": "payable",
      "type": "fallback"
    },
    {
      "anonymous": false,
      "inputs": [
        {
          "indexed": false,
          "internalType": "address",
          "name": "to",
          "type": "address"
        },
        {
          "indexed": false,
          "internalType": "uint256",
          "name": "amount",
          "type": "uint256"
        }
      ],
      "name": "LogSendDepositLeftover",
      "type": "event"
    }
  ],
  "transactionHash": "0x513d354e64b14a2bb3ba2d0ecb167c8a1c2ba7c3deeec4a0afaa062633af6c59",
  "args": [],
  "solcInputHash": "24e75b8b8cec242a82dfacbe3a4c9094",
  "bytecode": "0x608060405234801561001057600080fd5b50610bf3806100206000396000f3fe6080604052600436106100345760003560e01c8063a524679e14610055578063ca0bfcce14610080578063ec6925a714610095575b60405162461bcd60e51b815260040161004c90610a9f565b60405180910390fd5b34801561006157600080fd5b5061006a6100b7565b6040516100779190610a0e565b60405180910390f35b61009361008e36600461057f565b6100cf565b005b3480156100a157600080fd5b506100aa6103ac565b6040516100779190610b1f565b738a04d14125d0fdcdc742f4a05c051de07232eda481565b86851480156100dd57508683145b80156100e857508681145b6101045760405162461bcd60e51b815260040161004c90610abf565b866101215760405162461bcd60e51b815260040161004c90610b0f565b61013a6801bc16d674ec8000008863ffffffff6103b916565b3410156101595760405162461bcd60e51b815260040161004c90610aff565b6000805b8881101561031b57738a04d14125d0fdcdc742f4a05c051de07232eda463228951186801bc16d674ec8000008c8c8581811061019557fe5b602002820190508035601e19368490030181126101b157600080fd5b9091016020810191503567ffffffffffffffff8111156101d057600080fd5b368190038213156101e057600080fd5b8c8c878181106101ec57fe5b602002820190508035601e193684900301811261020857600080fd5b9091016020810191503567ffffffffffffffff81111561022757600080fd5b3681900382131561023757600080fd5b8c8c8981811061024357fe5b602002820190508035601e193684900301811261025f57600080fd5b9091016020810191503567ffffffffffffffff81111561027e57600080fd5b3681900382131561028e57600080fd5b8c8c8b81811061029a57fe5b905060200201356040518963ffffffff1660e01b81526004016102c39796959493929190610a37565b6000604051808303818588803b1580156102dc57600080fd5b505af11580156102f0573d6000803e3d6000fd5b50505050506103116801bc16d674ec800000836103fc90919063ffffffff16565b915060010161015d565b506103356801bc16d674ec8000008963ffffffff6103b916565b811461033d57fe5b600061034f348363ffffffff61042116565b905080156103a0577f5bf796d990a3e234f75e4f1e307ccc21ddd796f87f41563e8320696505ee268a3382604051610388929190610a1c565b60405180910390a16103a0338263ffffffff61046316565b50505050505050505050565b6801bc16d674ec80000081565b6000826103c8575060006103f6565b828202828482816103d557fe5b04146103f35760405162461bcd60e51b815260040161004c90610aef565b90505b92915050565b6000828201838110156103f35760405162461bcd60e51b815260040161004c90610aaf565b60006103f383836040518060400160405280601e81526020017f536166654d6174683a207375627472616374696f6e206f766572666c6f770000815250610505565b30318111156104845760405162461bcd60e51b815260040161004c90610adf565b6000826001600160a01b03168260405161049d90610a03565b60006040518083038185875af1925050503d80600081146104da576040519150601f19603f3d011682016040523d82523d6000602084013e6104df565b606091505b50509050806105005760405162461bcd60e51b815260040161004c90610acf565b505050565b600081848411156105295760405162461bcd60e51b815260040161004c9190610a8e565b50508183035b9392505050565b60008083601f84011261054857600080fd5b50813567ffffffffffffffff81111561056057600080fd5b60208301915083602082028301111561057857600080fd5b9250929050565b6000806000806000806000806080898b03121561059b57600080fd5b883567ffffffffffffffff8111156105b257600080fd5b6105be8b828c01610536565b9850985050602089013567ffffffffffffffff8111156105dd57600080fd5b6105e98b828c01610536565b9650965050604089013567ffffffffffffffff81111561060857600080fd5b6106148b828c01610536565b9450945050606089013567ffffffffffffffff81111561063357600080fd5b61063f8b828c01610536565b92509250509295985092959890939650565b61065a81610b59565b82525050565b61065a81610b3f565b61065a81610b4a565b600061067e8385610b31565b935061068b838584610b6a565b61069483610ba6565b9093019392505050565b60006106a982610b2d565b6106b38185610b31565b93506106c3818560208601610b76565b61069481610ba6565b60006106d9605e83610b31565b7f2342617463684465706f7369742066616c6c6261636b28293a2055736520746881527f65206062617463684465706f736974282e2e2e29602066756e6374696f6e207460208201527f6f2073656e6420457468657220746f207468697320636f6e74726163742e0000604082015260600192915050565b600061075e601b83610b31565b7f536166654d6174683a206164646974696f6e206f766572666c6f770000000000815260200192915050565b6000610797604e83610b31565b7f2342617463684465706f7369742062617463684465706f73697428293a20416c81527f6c20706172616d657465722061727261792773206d757374206861766520746860208201526d329039b0b6b2903632b733ba341760911b604082015260600192915050565b600061080d603a83610b31565b7f416464726573733a20756e61626c6520746f2073656e642076616c75652c207281527f6563697069656e74206d61792068617665207265766572746564000000000000602082015260400192915050565b600061086c601d83610b31565b7f416464726573733a20696e73756666696369656e742062616c616e6365000000815260200192915050565b60006108a5602183610b31565b7f536166654d6174683a206d756c7469706c69636174696f6e206f766572666c6f8152607760f81b602082015260400192915050565b60006103f6600083610b3a565b60006108f5606883610b31565b7f2342617463684465706f7369742062617463684465706f73697428293a20457481527f686572206465706f7369746564206e6565647320746f206265206174206c656160208201527f73743a203332202a2028706172616d6574657220607075626b6579735b5d60206040820152673632b733ba34149760c11b606082015260800192915050565b600061098b605983610b31565b7f2342617463684465706f7369742062617463684465706f73697428293a20416c81527f6c20706172616d657465722061727261792773206d757374206861766520612060208201527f6c656e6774682067726561746572207468616e207a65726f2e00000000000000604082015260600192915050565b60006103f6826108db565b602081016103f68284610660565b60408101610a2a8285610651565b61052f6020830184610669565b60808082528101610a4981898b610672565b90508181036020830152610a5e818789610672565b90508181036040830152610a73818587610672565b9050610a826060830184610669565b98975050505050505050565b602080825281016103f3818461069e565b602080825281016103f6816106cc565b602080825281016103f681610751565b602080825281016103f68161078a565b602080825281016103f681610800565b602080825281016103f68161085f565b602080825281016103f681610898565b602080825281016103f6816108e8565b602080825281016103f68161097e565b602081016103f68284610669565b5190565b90815260200190565b919050565b60006103f682610b4d565b90565b6001600160a01b031690565b60006103f68260006103f682610b3f565b82818337506000910152565b60005b83811015610b91578181015183820152602001610b79565b83811115610ba0576000848401525b50505050565b601f01601f19169056fea365627a7a723158208835e51a0e1e580d928bc0aa0232fe3ca08c2746bd80f3feb2faa8d200a0c20e6c6578706572696d656e74616cf564736f6c634300050b0040",
  "devdoc": {
    "details": "The batch size has an upper bound due to the block gas limit. Each atomic          deposit costs ~62,000 gas. The current block gas-limit is ~12,400,000 gas.  /// Author:  Staked Securely, Inc. (https://staked.us/)",
    "methods": {
      "batchDeposit(bytes[],bytes[],bytes[],bytes32[])": {
        "params": {
          "deposit_data_roots": "- An array of the SHA-256 hash of the SSZ-encoded DepositData object.",
          "pubkeys": "- An array of BLS12-381 public keys.",
          "signatures": "- An array of BLS12-381 signatures.",
          "withdrawal_credentials": "- An array of commitment to public key for withdrawals."
        }
      }
    }
  },
  "userdoc": {
    "methods": {
      "batchDeposit(bytes[],bytes[],bytes[],bytes32[])": {
        "notice": "Submit index-matching arrays that form Phase 0 DepositData objects.         Will create a deposit transaction per index of the arrays submitted. "
      },
      "constructor": "Empty constructor."
    },
    "notice": "Batch ETH2 deposits, uses the official Deposit contract from the ETH          Foundation for each atomic deposit. This contract acts as a for loop.          Each deposit size will be an optimal 32 ETH. "
  }
}